{
  "_format": "hh-sol-artifact-1",
  "contractName": "Gloxis",
  "sourceName": "contracts/Gloxis.sol",
  "abi": [
    {
      "inputs": [
        {
          "internalType": "address",
          "name": "_VRFCoordinator",
          "type": "address"
        },
        {
          "internalType": "address",
          "name": "_linkTokenAddress",
          "type": "address"
        },
        {
          "internalType": "bytes32",
          "name": "_keyHash",
          "type": "bytes32"
        }
      ],
      "stateMutability": "nonpayable",
      "type": "constructor"
    },
    {
      "anonymous": false,
      "inputs": [
        {
          "indexed": true,
          "internalType": "address",
          "name": "owner",
          "type": "address"
        },
        {
          "indexed": true,
          "internalType": "address",
          "name": "approved",
          "type": "address"
        },
        {
          "indexed": true,
          "internalType": "uint256",
          "name": "tokenId",
          "type": "uint256"
        }
      ],
      "name": "Approval",
      "type": "event"
    },
    {
      "anonymous": false,
      "inputs": [
        {
          "indexed": true,
          "internalType": "address",
          "name": "owner",
          "type": "address"
        },
        {
          "indexed": true,
          "internalType": "address",
          "name": "operator",
          "type": "address"
        },
        {
          "indexed": false,
          "internalType": "bool",
          "name": "approved",
          "type": "bool"
        }
      ],
      "name": "ApprovalForAll",
      "type": "event"
    },
    {
      "anonymous": false,
      "inputs": [
        {
          "indexed": true,
          "internalType": "address",
          "name": "from",
          "type": "address"
        },
        {
          "indexed": true,
          "internalType": "address",
          "name": "to",
          "type": "address"
        },
        {
          "indexed": true,
          "internalType": "uint256",
          "name": "tokenId",
          "type": "uint256"
        }
      ],
      "name": "Transfer",
      "type": "event"
    },
    {
      "inputs": [
        {
          "internalType": "address",
          "name": "to",
          "type": "address"
        },
        {
          "internalType": "uint256",
          "name": "tokenId",
          "type": "uint256"
        }
      ],
      "name": "approve",
      "outputs": [],
      "stateMutability": "nonpayable",
      "type": "function"
    },
    {
      "inputs": [
        {
          "internalType": "address",
          "name": "owner",
          "type": "address"
        }
      ],
      "name": "balanceOf",
      "outputs": [
        {
          "internalType": "uint256",
          "name": "",
          "type": "uint256"
        }
      ],
      "stateMutability": "view",
      "type": "function"
    },
    {
      "inputs": [],
      "name": "baseURI",
      "outputs": [
        {
          "internalType": "string",
          "name": "",
          "type": "string"
        }
      ],
      "stateMutability": "view",
      "type": "function"
    },
    {
      "inputs": [
        {
          "internalType": "uint256",
          "name": "",
          "type": "uint256"
        }
      ],
      "name": "characterToOwner",
      "outputs": [
        {
          "internalType": "address",
          "name": "",
          "type": "address"
        }
      ],
      "stateMutability": "view",
      "type": "function"
    },
    {
      "inputs": [
        {
          "internalType": "uint256",
          "name": "",
          "type": "uint256"
        }
      ],
      "name": "characters",
      "outputs": [
        {
          "internalType": "string",
          "name": "name",
          "type": "string"
        },
        {
          "internalType": "uint32",
          "name": "level",
          "type": "uint32"
        },
        {
          "internalType": "uint32",
          "name": "manaCount",
          "type": "uint32"
        },
        {
          "internalType": "uint256",
          "name": "readyTime",
          "type": "uint256"
        },
        {
          "internalType": "uint256",
          "name": "dna",
          "type": "uint256"
        }
      ],
      "stateMutability": "view",
      "type": "function"
    },
    {
      "inputs": [
        {
          "internalType": "uint256",
          "name": "tokenId",
          "type": "uint256"
        }
      ],
      "name": "getApproved",
      "outputs": [
        {
          "internalType": "address",
          "name": "",
          "type": "address"
        }
      ],
      "stateMutability": "view",
      "type": "function"
    },
    {
      "inputs": [],
      "name": "getCharactersCount",
      "outputs": [
        {
          "internalType": "uint256",
          "name": "count",
          "type": "uint256"
        }
      ],
      "stateMutability": "view",
      "type": "function"
    },
    {
      "inputs": [
        {
          "internalType": "address",
          "name": "owner",
          "type": "address"
        },
        {
          "internalType": "address",
          "name": "operator",
          "type": "address"
        }
      ],
      "name": "isApprovedForAll",
      "outputs": [
        {
          "internalType": "bool",
          "name": "",
          "type": "bool"
        }
      ],
      "stateMutability": "view",
      "type": "function"
    },
    {
      "inputs": [],
      "name": "name",
      "outputs": [
        {
          "internalType": "string",
          "name": "",
          "type": "string"
        }
      ],
      "stateMutability": "view",
      "type": "function"
    },
    {
      "inputs": [
        {
          "internalType": "uint256",
          "name": "tokenId",
          "type": "uint256"
        }
      ],
      "name": "ownerOf",
      "outputs": [
        {
          "internalType": "address",
          "name": "",
          "type": "address"
        }
      ],
      "stateMutability": "view",
      "type": "function"
    },
    {
      "inputs": [],
      "name": "randomResult",
      "outputs": [
        {
          "internalType": "uint256",
          "name": "",
          "type": "uint256"
        }
      ],
      "stateMutability": "view",
      "type": "function"
    },
    {
      "inputs": [
        {
          "internalType": "bytes32",
          "name": "requestId",
          "type": "bytes32"
        },
        {
          "internalType": "uint256",
          "name": "randomness",
          "type": "uint256"
        }
      ],
      "name": "rawFulfillRandomness",
      "outputs": [],
      "stateMutability": "nonpayable",
      "type": "function"
    },
    {
      "inputs": [
        {
          "internalType": "uint256",
          "name": "userProvidedSeed",
          "type": "uint256"
        },
        {
          "internalType": "string",
          "name": "name",
          "type": "string"
        }
      ],
      "name": "requestNewRandomCharacter",
      "outputs": [
        {
          "internalType": "bytes32",
          "name": "",
          "type": "bytes32"
        }
      ],
      "stateMutability": "nonpayable",
      "type": "function"
    },
    {
      "inputs": [
        {
          "internalType": "address",
          "name": "from",
          "type": "address"
        },
        {
          "internalType": "address",
          "name": "to",
          "type": "address"
        },
        {
          "internalType": "uint256",
          "name": "tokenId",
          "type": "uint256"
        }
      ],
      "name": "safeTransferFrom",
      "outputs": [],
      "stateMutability": "nonpayable",
      "type": "function"
    },
    {
      "inputs": [
        {
          "internalType": "address",
          "name": "from",
          "type": "address"
        },
        {
          "internalType": "address",
          "name": "to",
          "type": "address"
        },
        {
          "internalType": "uint256",
          "name": "tokenId",
          "type": "uint256"
        },
        {
          "internalType": "bytes",
          "name": "_data",
          "type": "bytes"
        }
      ],
      "name": "safeTransferFrom",
      "outputs": [],
      "stateMutability": "nonpayable",
      "type": "function"
    },
    {
      "inputs": [
        {
          "internalType": "address",
          "name": "operator",
          "type": "address"
        },
        {
          "internalType": "bool",
          "name": "approved",
          "type": "bool"
        }
      ],
      "name": "setApprovalForAll",
      "outputs": [],
      "stateMutability": "nonpayable",
      "type": "function"
    },
    {
      "inputs": [
        {
          "internalType": "uint256",
          "name": "tokenId",
          "type": "uint256"
        },
        {
          "internalType": "string",
          "name": "_tokenURI",
          "type": "string"
        }
      ],
      "name": "setTokenURI",
      "outputs": [],
      "stateMutability": "nonpayable",
      "type": "function"
    },
    {
      "inputs": [
        {
          "internalType": "uint256",
          "name": "_characterId",
          "type": "uint256"
        },
        {
          "internalType": "uint256",
          "name": "_targetId",
          "type": "uint256"
        }
      ],
      "name": "shareMana",
      "outputs": [],
      "stateMutability": "nonpayable",
      "type": "function"
    },
    {
      "inputs": [
        {
          "internalType": "bytes4",
          "name": "interfaceId",
          "type": "bytes4"
        }
      ],
      "name": "supportsInterface",
      "outputs": [
        {
          "internalType": "bool",
          "name": "",
          "type": "bool"
        }
      ],
      "stateMutability": "view",
      "type": "function"
    },
    {
      "inputs": [],
      "name": "symbol",
      "outputs": [
        {
          "internalType": "string",
          "name": "",
          "type": "string"
        }
      ],
      "stateMutability": "view",
      "type": "function"
    },
    {
      "inputs": [
        {
          "internalType": "uint256",
          "name": "index",
          "type": "uint256"
        }
      ],
      "name": "tokenByIndex",
      "outputs": [
        {
          "internalType": "uint256",
          "name": "",
          "type": "uint256"
        }
      ],
      "stateMutability": "view",
      "type": "function"
    },
    {
      "inputs": [
        {
          "internalType": "address",
          "name": "owner",
          "type": "address"
        },
        {
          "internalType": "uint256",
          "name": "index",
          "type": "uint256"
        }
      ],
      "name": "tokenOfOwnerByIndex",
      "outputs": [
        {
          "internalType": "uint256",
          "name": "",
          "type": "uint256"
        }
      ],
      "stateMutability": "view",
      "type": "function"
    },
    {
      "inputs": [
        {
          "internalType": "uint256",
          "name": "tokenId",
          "type": "uint256"
        }
      ],
      "name": "tokenURI",
      "outputs": [
        {
          "internalType": "string",
          "name": "",
          "type": "string"
        }
      ],
      "stateMutability": "view",
      "type": "function"
    },
    {
      "inputs": [],
      "name": "totalSupply",
      "outputs": [
        {
          "internalType": "uint256",
          "name": "",
          "type": "uint256"
        }
      ],
      "stateMutability": "view",
      "type": "function"
    },
    {
      "inputs": [
        {
          "internalType": "address",
          "name": "from",
          "type": "address"
        },
        {
          "internalType": "address",
          "name": "to",
          "type": "address"
        },
        {
          "internalType": "uint256",
          "name": "tokenId",
          "type": "uint256"
        }
      ],
      "name": "transferFrom",
      "outputs": [],
      "stateMutability": "nonpayable",
      "type": "function"
    }
  ],
  "bytecode": "0x60c060405262015180600f5560016010556002601155601054600a0a601255601154600a0a6013553480156200003457600080fd5b50604051620047bc380380620047bc83398181016040528101906200005a9190620003d8565b82826040518060400160405280600681526020017f476c6f78697300000000000000000000000000000000000000000000000000008152506040518060400160405280600381526020017f4758530000000000000000000000000000000000000000000000000000000000815250620000e06301ffc9a760e01b6200022c60201b60201c565b8160069080519060200190620000f892919062000304565b5080600790805190602001906200011192919062000304565b506200012a6380ac58cd60e01b6200022c60201b60201c565b62000142635b5e139f60e01b6200022c60201b60201c565b6200015a63780e9d6360e01b6200022c60201b60201c565b50508173ffffffffffffffffffffffffffffffffffffffff1660a08173ffffffffffffffffffffffffffffffffffffffff1660601b815250508073ffffffffffffffffffffffffffffffffffffffff1660808173ffffffffffffffffffffffffffffffffffffffff1660601b81525050505082600b60006101000a81548173ffffffffffffffffffffffffffffffffffffffff021916908373ffffffffffffffffffffffffffffffffffffffff16021790555080600c8190555067016345785d8a0000600d8190555050505062000515565b63ffffffff60e01b817bffffffffffffffffffffffffffffffffffffffffffffffffffffffff1916141562000298576040517f08c379a00000000000000000000000000000000000000000000000000000000081526004016200028f9062000470565b60405180910390fd5b6001600080837bffffffffffffffffffffffffffffffffffffffffffffffffffffffff19167bffffffffffffffffffffffffffffffffffffffffffffffffffffffff1916815260200190815260200160002060006101000a81548160ff02191690831515021790555050565b828054600181600116156101000203166002900490600052602060002090601f016020900481019282601f106200034757805160ff191683800117855562000378565b8280016001018555821562000378579182015b82811115620003775782518255916020019190600101906200035a565b5b5090506200038791906200038b565b5090565b5b80821115620003a65760008160009055506001016200038c565b5090565b600081519050620003bb81620004e1565b92915050565b600081519050620003d281620004fb565b92915050565b600080600060608486031215620003ee57600080fd5b6000620003fe86828701620003aa565b93505060206200041186828701620003aa565b92505060406200042486828701620003c1565b9150509250925092565b60006200043d601c8362000492565b91507f4552433136353a20696e76616c696420696e74657266616365206964000000006000830152602082019050919050565b600060208201905081810360008301526200048b816200042e565b9050919050565b600082825260208201905092915050565b6000620004b082620004c1565b9050919050565b6000819050919050565b600073ffffffffffffffffffffffffffffffffffffffff82169050919050565b620004ec81620004a3565b8114620004f857600080fd5b50565b6200050681620004b7565b81146200051257600080fd5b50565b60805160601c60a05160601c6142736200054960003980610ffa528061157052508061058e528061153452506142736000f3fe608060405234801561001057600080fd5b50600436106101735760003560e01c806342619f66116100de57806370a0823111610097578063a22cb46511610071578063a22cb46514610488578063b88d4fde146104a4578063c87b56dd146104c0578063e985e9c5146104f057610173565b806370a082311461041e57806394985ddd1461044e57806395d89b411461046a57610173565b806342619f661461033257806342842e0e146103505780634810bc591461036c5780634f6ccce7146103a05780636352211e146103d05780636c0360eb1461040057610173565b8063162094c411610130578063162094c41461026057806318160ddd1461027c57806319e7ce8b1461029a57806323b872dd146102ca5780632f745c59146102e65780633699b6cb1461031657610173565b806301ffc9a71461017857806306396dbe146101a857806306fdde03146101d8578063081812fc146101f6578063095ea7b3146102265780631294e4cf14610242575b600080fd5b610192600480360381019061018d9190612e52565b610520565b60405161019f9190613b1a565b60405180910390f35b6101c260048036038101906101bd9190612ef6565b610587565b6040516101cf9190613b35565b60405180910390f35b6101e061070d565b6040516101ed9190613bbe565b60405180910390f35b610210600480360381019061020b9190612ea4565b6107af565b60405161021d9190613a75565b60405180910390f35b610240600480360381019061023b9190612db1565b610834565b005b61024a61094c565b6040516102579190613f7a565b60405180910390f35b61027a60048036038101906102759190612ef6565b610959565b005b6102846109b7565b6040516102919190613f7a565b60405180910390f35b6102b460048036038101906102af9190612ea4565b6109c8565b6040516102c19190613a75565b60405180910390f35b6102e460048036038101906102df9190612cab565b6109fb565b005b61030060048036038101906102fb9190612db1565b610a5b565b60405161030d9190613f7a565b60405180910390f35b610330600480360381019061032b9190612f4a565b610ab6565b005b61033a610d1c565b6040516103479190613f7a565b60405180910390f35b61036a60048036038101906103659190612cab565b610d22565b005b61038660048036038101906103819190612ea4565b610d42565b604051610397959493929190613be0565b60405180910390f35b6103ba60048036038101906103b59190612ea4565b610e3d565b6040516103c79190613f7a565b60405180910390f35b6103ea60048036038101906103e59190612ea4565b610e60565b6040516103f79190613a75565b60405180910390f35b610408610e97565b6040516104159190613bbe565b60405180910390f35b61043860048036038101906104339190612c46565b610f39565b6040516104459190613f7a565b60405180910390f35b61046860048036038101906104639190612e16565b610ff8565b005b610472611094565b60405161047f9190613bbe565b60405180910390f35b6104a2600480360381019061049d9190612d75565b611136565b005b6104be60048036038101906104b99190612cfa565b6112b7565b005b6104da60048036038101906104d59190612ea4565b611319565b6040516104e79190613bbe565b60405180910390f35b61050a60048036038101906105059190612c6f565b61149c565b6040516105179190613b1a565b60405180910390f35b6000806000837bffffffffffffffffffffffffffffffffffffffffffffffffffffffff19167bffffffffffffffffffffffffffffffffffffffffffffffffffffffff1916815260200190815260200160002060009054906101000a900460ff169050919050565b6000600d547f000000000000000000000000000000000000000000000000000000000000000073ffffffffffffffffffffffffffffffffffffffff166370a08231306040518263ffffffff1660e01b81526004016105e59190613a75565b60206040518083038186803b1580156105fd57600080fd5b505afa158015610611573d6000803e3d6000fd5b505050506040513d601f19601f820116820180604052508101906106359190612ecd565b1015610676576040517f08c379a000000000000000000000000000000000000000000000000000000000815260040161066d90613d3a565b60405180910390fd5b6000610687600c54600d5486611530565b9050826016600083815260200190815260200160002090805190602001906106b0929190612a59565b50336017600083815260200190815260200160002060006101000a81548173ffffffffffffffffffffffffffffffffffffffff021916908373ffffffffffffffffffffffffffffffffffffffff1602179055508091505092915050565b606060068054600181600116156101000203166002900480601f0160208091040260200160405190810160405280929190818152602001828054600181600116156101000203166002900480156107a55780601f1061077a576101008083540402835291602001916107a5565b820191906000526020600020905b81548152906001019060200180831161078857829003601f168201915b5050505050905090565b60006107ba82611698565b6107f9576040517f08c379a00000000000000000000000000000000000000000000000000000000081526004016107f090613e3a565b60405180910390fd5b6004600083815260200190815260200160002060009054906101000a900473ffffffffffffffffffffffffffffffffffffffff169050919050565b600061083f82610e60565b90508073ffffffffffffffffffffffffffffffffffffffff168373ffffffffffffffffffffffffffffffffffffffff1614156108b0576040517f08c379a00000000000000000000000000000000000000000000000000000000081526004016108a790613eda565b60405180910390fd5b8073ffffffffffffffffffffffffffffffffffffffff166108cf6116b5565b73ffffffffffffffffffffffffffffffffffffffff1614806108fe57506108fd816108f86116b5565b61149c565b5b61093d576040517f08c379a000000000000000000000000000000000000000000000000000000000815260040161093490613dba565b60405180910390fd5b61094783836116bd565b505050565b6000601480549050905090565b61096a6109646116b5565b83611776565b6109a9576040517f08c379a00000000000000000000000000000000000000000000000000000000081526004016109a090613f1a565b60405180910390fd5b6109b38282611854565b5050565b60006109c360026118c8565b905090565b60156020528060005260406000206000915054906101000a900473ffffffffffffffffffffffffffffffffffffffff1681565b610a0c610a066116b5565b82611776565b610a4b576040517f08c379a0000000000000000000000000000000000000000000000000000000008152600401610a4290613f1a565b60405180910390fd5b610a568383836118dd565b505050565b6000610aae82600160008673ffffffffffffffffffffffffffffffffffffffff1673ffffffffffffffffffffffffffffffffffffffff168152602001908152602001600020611af490919063ffffffff16565b905092915050565b816015600082815260200190815260200160002060009054906101000a900473ffffffffffffffffffffffffffffffffffffffff1673ffffffffffffffffffffffffffffffffffffffff163373ffffffffffffffffffffffffffffffffffffffff1614610b58576040517f08c379a0000000000000000000000000000000000000000000000000000000008152600401610b4f90613c3a565b60405180910390fd5b600060148481548110610b6757fe5b90600052602060002090600402019050610b8081611b0e565b610bbf576040517f08c379a0000000000000000000000000000000000000000000000000000000008152600401610bb690613f5a565b60405180910390fd5b60018160010160049054906101000a900463ffffffff1663ffffffff161015610c1d576040517f08c379a0000000000000000000000000000000000000000000000000000000008152600401610c1490613efa565b60405180910390fd5b82841415610c60576040517f08c379a0000000000000000000000000000000000000000000000000000000008152600401610c5790613d1a565b60405180910390fd5b600060148481548110610c6f57fe5b90600052602060002090600402019050610cad60018360010160009054906101000a900463ffffffff1663ffffffff16611b1f90919063ffffffff16565b50610cdc60018360010160049054906101000a900463ffffffff1663ffffffff16611b7490919063ffffffff16565b50610d0b60018260010160049054906101000a900463ffffffff1663ffffffff16611b1f90919063ffffffff16565b50610d1582611bca565b5050505050565b600e5481565b610d3d838383604051806020016040528060008152506112b7565b505050565b60148181548110610d4f57fe5b9060005260206000209060040201600091509050806000018054600181600116156101000203166002900480601f016020809104026020016040519081016040528092919081815260200182805460018160011615610100020316600290048015610dfb5780601f10610dd057610100808354040283529160200191610dfb565b820191906000526020600020905b815481529060010190602001808311610dde57829003601f168201915b5050505050908060010160009054906101000a900463ffffffff16908060010160049054906101000a900463ffffffff16908060020154908060030154905085565b600080610e54836002611be090919063ffffffff16565b50905080915050919050565b6000610e9082604051806060016040528060298152602001614215602991396002611c0c9092919063ffffffff16565b9050919050565b606060098054600181600116156101000203166002900480601f016020809104026020016040519081016040528092919081815260200182805460018160011615610100020316600290048015610f2f5780601f10610f0457610100808354040283529160200191610f2f565b820191906000526020600020905b815481529060010190602001808311610f1257829003601f168201915b5050505050905090565b60008073ffffffffffffffffffffffffffffffffffffffff168273ffffffffffffffffffffffffffffffffffffffff161415610faa576040517f08c379a0000000000000000000000000000000000000000000000000000000008152600401610fa190613dda565b60405180910390fd5b610ff1600160008473ffffffffffffffffffffffffffffffffffffffff1673ffffffffffffffffffffffffffffffffffffffff168152602001908152602001600020611c2b565b9050919050565b7f000000000000000000000000000000000000000000000000000000000000000073ffffffffffffffffffffffffffffffffffffffff163373ffffffffffffffffffffffffffffffffffffffff1614611086576040517f08c379a000000000000000000000000000000000000000000000000000000000815260040161107d90613eba565b60405180910390fd5b6110908282611c40565b5050565b606060078054600181600116156101000203166002900480601f01602080910402602001604051908101604052809291908181526020018280546001816001161561010002031660029004801561112c5780601f106111015761010080835404028352916020019161112c565b820191906000526020600020905b81548152906001019060200180831161110f57829003601f168201915b5050505050905090565b61113e6116b5565b73ffffffffffffffffffffffffffffffffffffffff168273ffffffffffffffffffffffffffffffffffffffff1614156111ac576040517f08c379a00000000000000000000000000000000000000000000000000000000081526004016111a390613cfa565b60405180910390fd5b80600560006111b96116b5565b73ffffffffffffffffffffffffffffffffffffffff1673ffffffffffffffffffffffffffffffffffffffff16815260200190815260200160002060008473ffffffffffffffffffffffffffffffffffffffff1673ffffffffffffffffffffffffffffffffffffffff16815260200190815260200160002060006101000a81548160ff0219169083151502179055508173ffffffffffffffffffffffffffffffffffffffff166112666116b5565b73ffffffffffffffffffffffffffffffffffffffff167f17307eab39ab6107e8899845ad3d59bd9653f200f220920489ca2b5937696c31836040516112ab9190613b1a565b60405180910390a35050565b6112c86112c26116b5565b83611776565b611307576040517f08c379a00000000000000000000000000000000000000000000000000000000081526004016112fe90613f1a565b60405180910390fd5b61131384848484611e90565b50505050565b606061132482611698565b611363576040517f08c379a000000000000000000000000000000000000000000000000000000000815260040161135a90613e9a565b60405180910390fd5b6060600860008481526020019081526020016000208054600181600116156101000203166002900480601f01602080910402602001604051908101604052809291908181526020018280546001816001161561010002031660029004801561140c5780601f106113e15761010080835404028352916020019161140c565b820191906000526020600020905b8154815290600101906020018083116113ef57829003601f168201915b50505050509050606061141d610e97565b9050600081511415611433578192505050611497565b600082511115611468578082604051602001611450929190613a51565b60405160208183030381529060405292505050611497565b8061147285611eec565b604051602001611483929190613a51565b604051602081830303815290604052925050505b919050565b6000600560008473ffffffffffffffffffffffffffffffffffffffff1673ffffffffffffffffffffffffffffffffffffffff16815260200190815260200160002060008373ffffffffffffffffffffffffffffffffffffffff1673ffffffffffffffffffffffffffffffffffffffff16815260200190815260200160002060009054906101000a900460ff16905092915050565b60007f000000000000000000000000000000000000000000000000000000000000000073ffffffffffffffffffffffffffffffffffffffff16634000aea07f00000000000000000000000000000000000000000000000000000000000000008587866040516020016115a3929190613b50565b6040516020818303038152906040526040518463ffffffff1660e01b81526004016115d093929190613adc565b602060405180830381600087803b1580156115ea57600080fd5b505af11580156115fe573d6000803e3d6000fd5b505050506040513d601f19601f820116820180604052508101906116229190612ded565b506000611644858430600a60008a815260200190815260200160002054612033565b905061166d6001600a600088815260200190815260200160002054611b1f90919063ffffffff16565b600a60008781526020019081526020016000208190555061168e858261206f565b9150509392505050565b60006116ae8260026120a290919063ffffffff16565b9050919050565b600033905090565b816004600083815260200190815260200160002060006101000a81548173ffffffffffffffffffffffffffffffffffffffff021916908373ffffffffffffffffffffffffffffffffffffffff160217905550808273ffffffffffffffffffffffffffffffffffffffff1661173083610e60565b73ffffffffffffffffffffffffffffffffffffffff167f8c5be1e5ebec7d5bd14f71427d1e84f3dd0314c0f7b2291e5b200ac8c7c3b92560405160405180910390a45050565b600061178182611698565b6117c0576040517f08c379a00000000000000000000000000000000000000000000000000000000081526004016117b790613d9a565b60405180910390fd5b60006117cb83610e60565b90508073ffffffffffffffffffffffffffffffffffffffff168473ffffffffffffffffffffffffffffffffffffffff16148061183a57508373ffffffffffffffffffffffffffffffffffffffff16611822846107af565b73ffffffffffffffffffffffffffffffffffffffff16145b8061184b575061184a818561149c565b5b91505092915050565b61185d82611698565b61189c576040517f08c379a000000000000000000000000000000000000000000000000000000000815260040161189390613e5a565b60405180910390fd5b806008600084815260200190815260200160002090805190602001906118c3929190612a59565b505050565b60006118d6826000016120bc565b9050919050565b8273ffffffffffffffffffffffffffffffffffffffff166118fd82610e60565b73ffffffffffffffffffffffffffffffffffffffff1614611953576040517f08c379a000000000000000000000000000000000000000000000000000000000815260040161194a90613e7a565b60405180910390fd5b600073ffffffffffffffffffffffffffffffffffffffff168273ffffffffffffffffffffffffffffffffffffffff1614156119c3576040517f08c379a00000000000000000000000000000000000000000000000000000000081526004016119ba90613cda565b60405180910390fd5b6119ce8383836120cd565b6119d96000826116bd565b611a2a81600160008673ffffffffffffffffffffffffffffffffffffffff1673ffffffffffffffffffffffffffffffffffffffff1681526020019081526020016000206120d290919063ffffffff16565b50611a7c81600160008573ffffffffffffffffffffffffffffffffffffffff1673ffffffffffffffffffffffffffffffffffffffff1681526020019081526020016000206120ec90919063ffffffff16565b50611a93818360026121069092919063ffffffff16565b50808273ffffffffffffffffffffffffffffffffffffffff168473ffffffffffffffffffffffffffffffffffffffff167fddf252ad1be2c89b69c2b068fc378daa952ba7f163c4a11628f55a4df523b3ef60405160405180910390a4505050565b6000611b03836000018361213b565b60001c905092915050565b600042826002015411159050919050565b600080828401905083811015611b6a576040517f08c379a0000000000000000000000000000000000000000000000000000000008152600401611b6190613cba565b60405180910390fd5b8091505092915050565b600082821115611bb9576040517f08c379a0000000000000000000000000000000000000000000000000000000008152600401611bb090613d5a565b60405180910390fd5b600082840390508091505092915050565b600f54420163ffffffff16816002018190555050565b600080600080611bf386600001866121a8565b915091508160001c8160001c9350935050509250929050565b6000611c1f846000018460001b8461222b565b60001c90509392505050565b6000611c39826000016122bc565b9050919050565b6000601480549050905060006012548381611c5757fe5b06905060006013548481611c6757fe5b06905060146040518060a00160405280601660008981526020019081526020016000208054600181600116156101000203166002900480601f016020809104026020016040519081016040528092919081815260200182805460018160011615610100020316600290048015611d1e5780601f10611cf357610100808354040283529160200191611d1e565b820191906000526020600020905b815481529060010190602001808311611d0157829003601f168201915b505050505081526020018463ffffffff1681526020018363ffffffff1681526020014263ffffffff1681526020018681525090806001815401808255809150506001900390600052602060002090600402016000909190919091506000820151816000019080519060200190611d95929190612a59565b5060208201518160010160006101000a81548163ffffffff021916908363ffffffff16021790555060408201518160010160046101000a81548163ffffffff021916908363ffffffff16021790555060608201518160020155608082015181600301555050336015600085815260200190815260200160002060006101000a81548173ffffffffffffffffffffffffffffffffffffffff021916908373ffffffffffffffffffffffffffffffffffffffff160217905550611e896017600087815260200190815260200160002060009054906101000a900473ffffffffffffffffffffffffffffffffffffffff16846122cd565b5050505050565b611e9b8484846118dd565b611ea7848484846122eb565b611ee6576040517f08c379a0000000000000000000000000000000000000000000000000000000008152600401611edd90613c7a565b60405180910390fd5b50505050565b60606000821415611f34576040518060400160405280600181526020017f3000000000000000000000000000000000000000000000000000000000000000815250905061202e565b600082905060005b60008214611f5e578080600101915050600a8281611f5657fe5b049150611f3c565b60608167ffffffffffffffff81118015611f7757600080fd5b506040519080825280601f01601f191660200182016040528015611faa5781602001600182028036833780820191505090505b50905060006001830390508593505b6000841461202657600a8481611fcb57fe5b0660300160f81b82828060019003935081518110611fe557fe5b60200101907effffffffffffffffffffffffffffffffffffffffffffffffffffffffffffff1916908160001a905350600a848161201e57fe5b049350611fb9565b819450505050505b919050565b60008484848460405160200161204c9493929190613b79565b6040516020818303038152906040528051906020012060001c9050949350505050565b60008282604051602001612084929190613a0e565b60405160208183030381529060405280519060200120905092915050565b60006120b4836000018360001b61244f565b905092915050565b600081600001805490509050919050565b505050565b60006120e4836000018360001b612472565b905092915050565b60006120fe836000018360001b61255a565b905092915050565b6000612132846000018460001b8473ffffffffffffffffffffffffffffffffffffffff1660001b6125ca565b90509392505050565b600081836000018054905011612186576040517f08c379a000000000000000000000000000000000000000000000000000000000815260040161217d90613c5a565b60405180910390fd5b82600001828154811061219557fe5b9060005260206000200154905092915050565b600080828460000180549050116121f4576040517f08c379a00000000000000000000000000000000000000000000000000000000081526004016121eb90613dfa565b60405180910390fd5b600084600001848154811061220557fe5b906000526020600020906002020190508060000154816001015492509250509250929050565b6000808460010160008581526020019081526020016000205490506000811415839061228d576040517f08c379a00000000000000000000000000000000000000000000000000000000081526004016122849190613bbe565b60405180910390fd5b508460000160018203815481106122a057fe5b9060005260206000209060020201600101549150509392505050565b600081600001805490509050919050565b6122e78282604051806020016040528060008152506126a6565b5050565b600061230c8473ffffffffffffffffffffffffffffffffffffffff16612701565b6123195760019050612447565b60606123e063150b7a0260e01b61232e6116b5565b8887876040516024016123449493929190613a90565b604051602081830303815290604052907bffffffffffffffffffffffffffffffffffffffffffffffffffffffff19166020820180517bffffffffffffffffffffffffffffffffffffffffffffffffffffffff83818316178352505050506040518060600160405280603281526020016141e3603291398773ffffffffffffffffffffffffffffffffffffffff166127149092919063ffffffff16565b90506000818060200190518101906123f89190612e7b565b905063150b7a0260e01b7bffffffffffffffffffffffffffffffffffffffffffffffffffffffff1916817bffffffffffffffffffffffffffffffffffffffffffffffffffffffff191614925050505b949350505050565b600080836001016000848152602001908152602001600020541415905092915050565b6000808360010160008481526020019081526020016000205490506000811461254e57600060018203905060006001866000018054905003905060008660000182815481106124bd57fe5b90600052602060002001549050808760000184815481106124da57fe5b906000526020600020018190555060018301876001016000838152602001908152602001600020819055508660000180548061251257fe5b60019003818190600052602060002001600090559055866001016000878152602001908152602001600020600090556001945050505050612554565b60009150505b92915050565b6000612566838361272c565b6125bf5782600001829080600181540180825580915050600190039060005260206000200160009091909190915055826000018054905083600101600084815260200190815260200160002081905550600190506125c4565b600090505b92915050565b60008084600101600085815260200190815260200160002054905060008114156126715784600001604051806040016040528086815260200185815250908060018154018082558091505060019003906000526020600020906002020160009091909190915060008201518160000155602082015181600101555050846000018054905085600101600086815260200190815260200160002081905550600191505061269f565b8285600001600183038154811061268457fe5b90600052602060002090600202016001018190555060009150505b9392505050565b6126b0838361274f565b6126bd60008484846122eb565b6126fc576040517f08c379a00000000000000000000000000000000000000000000000000000000081526004016126f390613c7a565b60405180910390fd5b505050565b600080823b905060008111915050919050565b606061272384846000856128dd565b90509392505050565b600080836001016000848152602001908152602001600020541415905092915050565b600073ffffffffffffffffffffffffffffffffffffffff168273ffffffffffffffffffffffffffffffffffffffff1614156127bf576040517f08c379a00000000000000000000000000000000000000000000000000000000081526004016127b690613e1a565b60405180910390fd5b6127c881611698565b15612808576040517f08c379a00000000000000000000000000000000000000000000000000000000081526004016127ff90613c9a565b60405180910390fd5b612814600083836120cd565b61286581600160008573ffffffffffffffffffffffffffffffffffffffff1673ffffffffffffffffffffffffffffffffffffffff1681526020019081526020016000206120ec90919063ffffffff16565b5061287c818360026121069092919063ffffffff16565b50808273ffffffffffffffffffffffffffffffffffffffff16600073ffffffffffffffffffffffffffffffffffffffff167fddf252ad1be2c89b69c2b068fc378daa952ba7f163c4a11628f55a4df523b3ef60405160405180910390a45050565b606082471015612922576040517f08c379a000000000000000000000000000000000000000000000000000000000815260040161291990613d7a565b60405180910390fd5b61292b85612701565b61296a576040517f08c379a000000000000000000000000000000000000000000000000000000000815260040161296190613f3a565b60405180910390fd5b600060608673ffffffffffffffffffffffffffffffffffffffff1685876040516129949190613a3a565b60006040518083038185875af1925050503d80600081146129d1576040519150601f19603f3d011682016040523d82523d6000602084013e6129d6565b606091505b50915091506129e68282866129f2565b92505050949350505050565b60608315612a0257829050612a52565b600083511115612a155782518084602001fd5b816040517f08c379a0000000000000000000000000000000000000000000000000000000008152600401612a499190613bbe565b60405180910390fd5b9392505050565b828054600181600116156101000203166002900490600052602060002090601f016020900481019282601f10612a9a57805160ff1916838001178555612ac8565b82800160010185558215612ac8579182015b82811115612ac7578251825591602001919060010190612aac565b5b509050612ad59190612ad9565b5090565b5b80821115612af2576000816000905550600101612ada565b5090565b600081359050612b058161416f565b92915050565b600081359050612b1a81614186565b92915050565b600081519050612b2f81614186565b92915050565b600081359050612b448161419d565b92915050565b600081359050612b59816141b4565b92915050565b600081519050612b6e816141b4565b92915050565b600082601f830112612b8557600080fd5b8135612b98612b9382613fc2565b613f95565b91508082526020830160208301858383011115612bb457600080fd5b612bbf838284614108565b50505092915050565b600082601f830112612bd957600080fd5b8135612bec612be782613fee565b613f95565b91508082526020830160208301858383011115612c0857600080fd5b612c13838284614108565b50505092915050565b600081359050612c2b816141cb565b92915050565b600081519050612c40816141cb565b92915050565b600060208284031215612c5857600080fd5b6000612c6684828501612af6565b91505092915050565b60008060408385031215612c8257600080fd5b6000612c9085828601612af6565b9250506020612ca185828601612af6565b9150509250929050565b600080600060608486031215612cc057600080fd5b6000612cce86828701612af6565b9350506020612cdf86828701612af6565b9250506040612cf086828701612c1c565b9150509250925092565b60008060008060808587031215612d1057600080fd5b6000612d1e87828801612af6565b9450506020612d2f87828801612af6565b9350506040612d4087828801612c1c565b925050606085013567ffffffffffffffff811115612d5d57600080fd5b612d6987828801612b74565b91505092959194509250565b60008060408385031215612d8857600080fd5b6000612d9685828601612af6565b9250506020612da785828601612b0b565b9150509250929050565b60008060408385031215612dc457600080fd5b6000612dd285828601612af6565b9250506020612de385828601612c1c565b9150509250929050565b600060208284031215612dff57600080fd5b6000612e0d84828501612b20565b91505092915050565b60008060408385031215612e2957600080fd5b6000612e3785828601612b35565b9250506020612e4885828601612c1c565b9150509250929050565b600060208284031215612e6457600080fd5b6000612e7284828501612b4a565b91505092915050565b600060208284031215612e8d57600080fd5b6000612e9b84828501612b5f565b91505092915050565b600060208284031215612eb657600080fd5b6000612ec484828501612c1c565b91505092915050565b600060208284031215612edf57600080fd5b6000612eed84828501612c31565b91505092915050565b60008060408385031215612f0957600080fd5b6000612f1785828601612c1c565b925050602083013567ffffffffffffffff811115612f3457600080fd5b612f4085828601612bc8565b9150509250929050565b60008060408385031215612f5d57600080fd5b6000612f6b85828601612c1c565b9250506020612f7c85828601612c1c565b9150509250929050565b612f8f8161407a565b82525050565b612f9e81614068565b82525050565b612fad8161408c565b82525050565b612fbc81614098565b82525050565b612fd3612fce82614098565b61414a565b82525050565b6000612fe48261401a565b612fee8185614030565b9350612ffe818560208601614117565b6130078161415e565b840191505092915050565b600061301d8261401a565b6130278185614041565b9350613037818560208601614117565b80840191505092915050565b600061304e82614025565b613058818561404c565b9350613068818560208601614117565b6130718161415e565b840191505092915050565b600061308782614025565b613091818561405d565b93506130a1818560208601614117565b80840191505092915050565b60006130ba60258361404c565b91507f4f6e6c7920746865206f776e65722063616e2063616c6c20746869732066756e60008301527f6374696f6e0000000000000000000000000000000000000000000000000000006020830152604082019050919050565b600061312060228361404c565b91507f456e756d657261626c655365743a20696e646578206f7574206f6620626f756e60008301527f64730000000000000000000000000000000000000000000000000000000000006020830152604082019050919050565b600061318660328361404c565b91507f4552433732313a207472616e7366657220746f206e6f6e20455243373231526560008301527f63656976657220696d706c656d656e74657200000000000000000000000000006020830152604082019050919050565b60006131ec601c8361404c565b91507f4552433732313a20746f6b656e20616c7265616479206d696e746564000000006000830152602082019050919050565b600061322c601b8361404c565b91507f536166654d6174683a206164646974696f6e206f766572666c6f7700000000006000830152602082019050919050565b600061326c60248361404c565b91507f4552433732313a207472616e7366657220746f20746865207a65726f2061646460008301527f72657373000000000000000000000000000000000000000000000000000000006020830152604082019050919050565b60006132d260198361404c565b91507f4552433732313a20617070726f766520746f2063616c6c6572000000000000006000830152602082019050919050565b600061331260218361404c565b91507f596f752063616e6e6f7420696e746572616374207769746820796f757273656c60008301527f66000000000000000000000000000000000000000000000000000000000000006020830152604082019050919050565b6000613378602b8361404c565b91507f4e6f7420656e6f756768204c494e4b202d2066696c6c20636f6e74726163742060008301527f77697468206661756365740000000000000000000000000000000000000000006020830152604082019050919050565b60006133de601e8361404c565b91507f536166654d6174683a207375627472616374696f6e206f766572666c6f7700006000830152602082019050919050565b600061341e60268361404c565b91507f416464726573733a20696e73756666696369656e742062616c616e636520666f60008301527f722063616c6c00000000000000000000000000000000000000000000000000006020830152604082019050919050565b6000613484602c8361404c565b91507f4552433732313a206f70657261746f7220717565727920666f72206e6f6e657860008301527f697374656e7420746f6b656e00000000000000000000000000000000000000006020830152604082019050919050565b60006134ea60388361404c565b91507f4552433732313a20617070726f76652063616c6c6572206973206e6f74206f7760008301527f6e6572206e6f7220617070726f76656420666f7220616c6c00000000000000006020830152604082019050919050565b6000613550602a8361404c565b91507f4552433732313a2062616c616e636520717565727920666f7220746865207a6560008301527f726f2061646472657373000000000000000000000000000000000000000000006020830152604082019050919050565b60006135b660228361404c565b91507f456e756d657261626c654d61703a20696e646578206f7574206f6620626f756e60008301527f64730000000000000000000000000000000000000000000000000000000000006020830152604082019050919050565b600061361c60208361404c565b91507f4552433732313a206d696e7420746f20746865207a65726f20616464726573736000830152602082019050919050565b600061365c602c8361404c565b91507f4552433732313a20617070726f76656420717565727920666f72206e6f6e657860008301527f697374656e7420746f6b656e00000000000000000000000000000000000000006020830152604082019050919050565b60006136c2602c8361404c565b91507f4552433732314d657461646174613a2055524920736574206f66206e6f6e657860008301527f697374656e7420746f6b656e00000000000000000000000000000000000000006020830152604082019050919050565b600061372860298361404c565b91507f4552433732313a207472616e73666572206f6620746f6b656e2074686174206960008301527f73206e6f74206f776e00000000000000000000000000000000000000000000006020830152604082019050919050565b600061378e602f8361404c565b91507f4552433732314d657461646174613a2055524920717565727920666f72206e6f60008301527f6e6578697374656e7420746f6b656e00000000000000000000000000000000006020830152604082019050919050565b60006137f4601f8361404c565b91507f4f6e6c7920565246436f6f7264696e61746f722063616e2066756c66696c6c006000830152602082019050919050565b600061383460218361404c565b91507f4552433732313a20617070726f76616c20746f2063757272656e74206f776e6560008301527f72000000000000000000000000000000000000000000000000000000000000006020830152604082019050919050565b600061389a601a8361404c565b91507f596f7520646f6e2774206861766520656e6f756768206d616e610000000000006000830152602082019050919050565b60006138da60318361404c565b91507f4552433732313a207472616e736665722063616c6c6572206973206e6f74206f60008301527f776e6572206e6f7220617070726f7665640000000000000000000000000000006020830152604082019050919050565b6000613940601d8361404c565b91507f416464726573733a2063616c6c20746f206e6f6e2d636f6e74726163740000006000830152602082019050919050565b6000613980602e8361404c565b91507f596f75206861766520746f207761697420796f757220312064617920746f207360008301527f6861726520796f7572206d616e610000000000000000000000000000000000006020830152604082019050919050565b6139e2816140ee565b82525050565b6139f96139f4826140ee565b614154565b82525050565b613a08816140f8565b82525050565b6000613a1a8285612fc2565b602082019150613a2a82846139e8565b6020820191508190509392505050565b6000613a468284613012565b915081905092915050565b6000613a5d828561307c565b9150613a69828461307c565b91508190509392505050565b6000602082019050613a8a6000830184612f95565b92915050565b6000608082019050613aa56000830187612f86565b613ab26020830186612f95565b613abf60408301856139d9565b8181036060830152613ad18184612fd9565b905095945050505050565b6000606082019050613af16000830186612f95565b613afe60208301856139d9565b8181036040830152613b108184612fd9565b9050949350505050565b6000602082019050613b2f6000830184612fa4565b92915050565b6000602082019050613b4a6000830184612fb3565b92915050565b6000604082019050613b656000830185612fb3565b613b7260208301846139d9565b9392505050565b6000608082019050613b8e6000830187612fb3565b613b9b60208301866139d9565b613ba86040830185612f95565b613bb560608301846139d9565b95945050505050565b60006020820190508181036000830152613bd88184613043565b905092915050565b600060a0820190508181036000830152613bfa8188613043565b9050613c0960208301876139ff565b613c1660408301866139ff565b613c2360608301856139d9565b613c3060808301846139d9565b9695505050505050565b60006020820190508181036000830152613c53816130ad565b9050919050565b60006020820190508181036000830152613c7381613113565b9050919050565b60006020820190508181036000830152613c9381613179565b9050919050565b60006020820190508181036000830152613cb3816131df565b9050919050565b60006020820190508181036000830152613cd38161321f565b9050919050565b60006020820190508181036000830152613cf38161325f565b9050919050565b60006020820190508181036000830152613d13816132c5565b9050919050565b60006020820190508181036000830152613d3381613305565b9050919050565b60006020820190508181036000830152613d538161336b565b9050919050565b60006020820190508181036000830152613d73816133d1565b9050919050565b60006020820190508181036000830152613d9381613411565b9050919050565b60006020820190508181036000830152613db381613477565b9050919050565b60006020820190508181036000830152613dd3816134dd565b9050919050565b60006020820190508181036000830152613df381613543565b9050919050565b60006020820190508181036000830152613e13816135a9565b9050919050565b60006020820190508181036000830152613e338161360f565b9050919050565b60006020820190508181036000830152613e538161364f565b9050919050565b60006020820190508181036000830152613e73816136b5565b9050919050565b60006020820190508181036000830152613e938161371b565b9050919050565b60006020820190508181036000830152613eb381613781565b9050919050565b60006020820190508181036000830152613ed3816137e7565b9050919050565b60006020820190508181036000830152613ef381613827565b9050919050565b60006020820190508181036000830152613f138161388d565b9050919050565b60006020820190508181036000830152613f33816138cd565b9050919050565b60006020820190508181036000830152613f5381613933565b9050919050565b60006020820190508181036000830152613f7381613973565b9050919050565b6000602082019050613f8f60008301846139d9565b92915050565b6000604051905081810181811067ffffffffffffffff82111715613fb857600080fd5b8060405250919050565b600067ffffffffffffffff821115613fd957600080fd5b601f19601f8301169050602081019050919050565b600067ffffffffffffffff82111561400557600080fd5b601f19601f8301169050602081019050919050565b600081519050919050565b600081519050919050565b600082825260208201905092915050565b600081905092915050565b600082825260208201905092915050565b600081905092915050565b6000614073826140ce565b9050919050565b6000614085826140ce565b9050919050565b60008115159050919050565b6000819050919050565b60007fffffffff0000000000000000000000000000000000000000000000000000000082169050919050565b600073ffffffffffffffffffffffffffffffffffffffff82169050919050565b6000819050919050565b600063ffffffff82169050919050565b82818337600083830152505050565b60005b8381101561413557808201518184015260208101905061411a565b83811115614144576000848401525b50505050565b6000819050919050565b6000819050919050565b6000601f19601f8301169050919050565b61417881614068565b811461418357600080fd5b50565b61418f8161408c565b811461419a57600080fd5b50565b6141a681614098565b81146141b157600080fd5b50565b6141bd816140a2565b81146141c857600080fd5b50565b6141d4816140ee565b81146141df57600080fd5b5056fe4552433732313a207472616e7366657220746f206e6f6e20455243373231526563656976657220696d706c656d656e7465724552433732313a206f776e657220717565727920666f72206e6f6e6578697374656e7420746f6b656ea2646970667358221220573bb1b5737eb5451fb34627debab1c8653112c4206e779205c8c72a8ac38ecb64736f6c634300060c0033",
  "linkReferences": {},
  "deployedLinkReferences": {}
}